{
  "contractName": "Post",
  "abi": [
    {
      "inputs": [
        {
          "internalType": "address",
          "name": "manager_init",
          "type": "address"
        },
        {
          "internalType": "string",
          "name": "content_init",
          "type": "string"
        },
        {
          "internalType": "string",
          "name": "name_init",
          "type": "string"
        }
      ],
      "payable": false,
      "stateMutability": "nonpayable",
      "type": "constructor"
    },
    {
      "constant": true,
      "inputs": [],
      "name": "balanceRef",
      "outputs": [
        {
          "internalType": "uint256",
          "name": "",
          "type": "uint256"
        }
      ],
      "payable": false,
      "stateMutability": "view",
      "type": "function"
    },
    {
      "constant": true,
      "inputs": [],
      "name": "completed",
      "outputs": [
        {
          "internalType": "bool",
          "name": "",
          "type": "bool"
        }
      ],
      "payable": false,
      "stateMutability": "view",
      "type": "function"
    },
    {
      "constant": true,
      "inputs": [],
      "name": "content",
      "outputs": [
        {
          "internalType": "string",
          "name": "",
          "type": "string"
        }
      ],
      "payable": false,
      "stateMutability": "view",
      "type": "function"
    },
    {
      "constant": true,
      "inputs": [],
      "name": "manager",
      "outputs": [
        {
          "internalType": "address",
          "name": "",
          "type": "address"
        }
      ],
      "payable": false,
      "stateMutability": "view",
      "type": "function"
    },
    {
      "constant": true,
      "inputs": [],
      "name": "name",
      "outputs": [
        {
          "internalType": "string",
          "name": "",
          "type": "string"
        }
      ],
      "payable": false,
      "stateMutability": "view",
      "type": "function"
    },
    {
      "constant": true,
      "inputs": [],
      "name": "naycount",
      "outputs": [
        {
          "internalType": "uint256",
          "name": "",
          "type": "uint256"
        }
      ],
      "payable": false,
      "stateMutability": "view",
      "type": "function"
    },
    {
      "constant": true,
      "inputs": [],
      "name": "nayprice",
      "outputs": [
        {
          "internalType": "uint256",
          "name": "",
          "type": "uint256"
        }
      ],
      "payable": false,
      "stateMutability": "view",
      "type": "function"
    },
    {
      "constant": true,
      "inputs": [
        {
          "internalType": "address",
          "name": "",
          "type": "address"
        }
      ],
      "name": "nays",
      "outputs": [
        {
          "internalType": "uint256",
          "name": "",
          "type": "uint256"
        }
      ],
      "payable": false,
      "stateMutability": "view",
      "type": "function"
    },
    {
      "constant": true,
      "inputs": [],
      "name": "timeStamp",
      "outputs": [
        {
          "internalType": "uint256",
          "name": "",
          "type": "uint256"
        }
      ],
      "payable": false,
      "stateMutability": "view",
      "type": "function"
    },
    {
      "constant": true,
      "inputs": [],
      "name": "total",
      "outputs": [
        {
          "internalType": "uint256",
          "name": "",
          "type": "uint256"
        }
      ],
      "payable": false,
      "stateMutability": "view",
      "type": "function"
    },
    {
      "constant": true,
      "inputs": [],
      "name": "verdict",
      "outputs": [
        {
          "internalType": "bool",
          "name": "",
          "type": "bool"
        }
      ],
      "payable": false,
      "stateMutability": "view",
      "type": "function"
    },
    {
      "constant": true,
      "inputs": [
        {
          "internalType": "uint256",
          "name": "",
          "type": "uint256"
        }
      ],
      "name": "voted",
      "outputs": [
        {
          "internalType": "address payable",
          "name": "",
          "type": "address"
        }
      ],
      "payable": false,
      "stateMutability": "view",
      "type": "function"
    },
    {
      "constant": true,
      "inputs": [],
      "name": "yaycount",
      "outputs": [
        {
          "internalType": "uint256",
          "name": "",
          "type": "uint256"
        }
      ],
      "payable": false,
      "stateMutability": "view",
      "type": "function"
    },
    {
      "constant": true,
      "inputs": [],
      "name": "yayprice",
      "outputs": [
        {
          "internalType": "uint256",
          "name": "",
          "type": "uint256"
        }
      ],
      "payable": false,
      "stateMutability": "view",
      "type": "function"
    },
    {
      "constant": true,
      "inputs": [
        {
          "internalType": "address",
          "name": "",
          "type": "address"
        }
      ],
      "name": "yays",
      "outputs": [
        {
          "internalType": "uint256",
          "name": "",
          "type": "uint256"
        }
      ],
      "payable": false,
      "stateMutability": "view",
      "type": "function"
    },
    {
      "constant": false,
      "inputs": [],
      "name": "complete",
      "outputs": [],
      "payable": true,
      "stateMutability": "payable",
      "type": "function"
    },
    {
      "constant": false,
      "inputs": [],
      "name": "updateCost",
      "outputs": [],
      "payable": false,
      "stateMutability": "nonpayable",
      "type": "function"
    },
    {
      "constant": false,
      "inputs": [],
      "name": "voteYay",
      "outputs": [],
      "payable": true,
      "stateMutability": "payable",
      "type": "function"
    },
    {
      "constant": false,
      "inputs": [],
      "name": "voteNay",
      "outputs": [],
      "payable": true,
      "stateMutability": "payable",
      "type": "function"
    },
    {
      "constant": true,
      "inputs": [],
      "name": "getSummary",
      "outputs": [
        {
          "internalType": "address",
          "name": "",
          "type": "address"
        },
        {
          "internalType": "string",
          "name": "",
          "type": "string"
        },
        {
          "internalType": "string",
          "name": "",
          "type": "string"
        },
        {
          "internalType": "uint256",
          "name": "",
          "type": "uint256"
        },
        {
          "internalType": "uint256",
          "name": "",
          "type": "uint256"
        },
        {
          "internalType": "uint256",
          "name": "",
          "type": "uint256"
        },
        {
          "internalType": "uint256",
          "name": "",
          "type": "uint256"
        },
        {
          "internalType": "bool",
          "name": "",
          "type": "bool"
        },
        {
          "internalType": "bool",
          "name": "",
          "type": "bool"
        },
        {
          "internalType": "uint256",
          "name": "",
          "type": "uint256"
        }
      ],
      "payable": false,
      "stateMutability": "view",
      "type": "function"
    }
  ],
  "bytecode": "0x608060405266470de4df820000600455600060075560006008556000600c60006101000a81548160ff0219169083151502179055506000600d553480156200004657600080fd5b506040516200179f3803806200179f833981810160405260608110156200006c57600080fd5b8101908080519060200190929190805160405193929190846401000000008211156200009757600080fd5b83820191506020820185811115620000ae57600080fd5b8251866001820283011164010000000082111715620000cc57600080fd5b8083526020830192505050908051906020019080838360005b8381101562000102578082015181840152602081019050620000e5565b50505050905090810190601f168015620001305780820380516001836020036101000a031916815260200191505b50604052602001805160405193929190846401000000008211156200015457600080fd5b838201915060208201858111156200016b57600080fd5b82518660018202830111640100000000821117156200018957600080fd5b8083526020830192505050908051906020019080838360005b83811015620001bf578082015181840152602081019050620001a2565b50505050905090810190601f168015620001ed5780820380516001836020036101000a031916815260200191505b5060405250505080600290805190602001906200020c9291906200031b565b5082600160006101000a81548173ffffffffffffffffffffffffffffffffffffffff021916908373ffffffffffffffffffffffffffffffffffffffff160217905550600160009054906101000a900473ffffffffffffffffffffffffffffffffffffffff166000806101000a81548173ffffffffffffffffffffffffffffffffffffffff021916908373ffffffffffffffffffffffffffffffffffffffff1602179055508160039080519060200190620002c89291906200031b565b50620002d9620002e260201b60201c565b505050620003ca565b60146008546007540101600a600754016004540281620002fe57fe5b046005819055506005546004540360068190555047600d81905550565b828054600181600116156101000203166002900490600052602060002090601f016020900481019282601f106200035e57805160ff19168380011785556200038f565b828001600101855582156200038f579182015b828111156200038e57825182559160200191906001019062000371565b5b5090506200039e9190620003a2565b5090565b620003c791905b80821115620003c3576000816000905550600101620003a9565b5090565b90565b6113c580620003da6000396000f3fe60806040526004361061011f5760003560e01c80638b563f62116100a0578063b0acb3c911610064578063b0acb3c91461060b578063befa4bfb14610636578063c7af3dd114610661578063d6dd6c2614610678578063d716dd1a146106a35761011f565b80638b563f62146104c75780638fbb38ff146104f25780639566eb691461056d57806395d765e9146105775780639d9a7fe9146105dc5761011f565b8063481c6a75116100e7578063481c6a751461037c578063522e1177146103d35780636aba253c146103dd5780637eb84be31461040c5780638a4d5a67146104375761011f565b806306fdde03146101245780630ab0df87146101b45780632ddbd13a146101df5780634051ddac1461020a57806340b7cba614610372575b600080fd5b34801561013057600080fd5b50610139610708565b6040518080602001828103825283818151815260200191508051906020019080838360005b8381101561017957808201518184015260208101905061015e565b50505050905090810190601f1680156101a65780820380516001836020036101000a031916815260200191505b509250505060405180910390f35b3480156101c057600080fd5b506101c96107a6565b6040518082815260200191505060405180910390f35b3480156101eb57600080fd5b506101f46107ac565b6040518082815260200191505060405180910390f35b34801561021657600080fd5b5061021f6107b2565b604051808b73ffffffffffffffffffffffffffffffffffffffff1673ffffffffffffffffffffffffffffffffffffffff16815260200180602001806020018a8152602001898152602001888152602001878152602001861515151581526020018515151515815260200184815260200183810383528c818151815260200191508051906020019080838360005b838110156102c75780820151818401526020810190506102ac565b50505050905090810190601f1680156102f45780820380516001836020036101000a031916815260200191505b5083810382528b818151815260200191508051906020019080838360005b8381101561032d578082015181840152602081019050610312565b50505050905090810190601f16801561035a5780820380516001836020036101000a031916815260200191505b509c5050505050505050505050505060405180910390f35b61037a61094e565b005b34801561038857600080fd5b50610391610b8d565b604051808273ffffffffffffffffffffffffffffffffffffffff1673ffffffffffffffffffffffffffffffffffffffff16815260200191505060405180910390f35b6103db610bb3565b005b3480156103e957600080fd5b506103f2610fb1565b604051808215151515815260200191505060405180910390f35b34801561041857600080fd5b50610421610fc4565b6040518082815260200191505060405180910390f35b34801561044357600080fd5b5061044c610fca565b6040518080602001828103825283818151815260200191508051906020019080838360005b8381101561048c578082015181840152602081019050610471565b50505050905090810190601f1680156104b95780820380516001836020036101000a031916815260200191505b509250505060405180910390f35b3480156104d357600080fd5b506104dc611068565b6040518082815260200191505060405180910390f35b3480156104fe57600080fd5b5061052b6004803603602081101561051557600080fd5b810190808035906020019092919050505061106e565b604051808273ffffffffffffffffffffffffffffffffffffffff1673ffffffffffffffffffffffffffffffffffffffff16815260200191505060405180910390f35b6105756110aa565b005b34801561058357600080fd5b506105c66004803603602081101561059a57600080fd5b81019080803573ffffffffffffffffffffffffffffffffffffffff169060200190929190505050611303565b6040518082815260200191505060405180910390f35b3480156105e857600080fd5b506105f161131b565b604051808215151515815260200191505060405180910390f35b34801561061757600080fd5b5061062061132e565b6040518082815260200191505060405180910390f35b34801561064257600080fd5b5061064b611334565b6040518082815260200191505060405180910390f35b34801561066d57600080fd5b5061067661133a565b005b34801561068457600080fd5b5061068d611372565b6040518082815260200191505060405180910390f35b3480156106af57600080fd5b506106f2600480360360208110156106c657600080fd5b81019080803573ffffffffffffffffffffffffffffffffffffffff169060200190929190505050611378565b6040518082815260200191505060405180910390f35b60028054600181600116156101000203166002900480601f01602080910402602001604051908101604052809291908181526020018280546001816001161561010002031660029004801561079e5780601f106107735761010080835404028352916020019161079e565b820191906000526020600020905b81548152906001019060200180831161078157829003601f168201915b505050505081565b600e5481565b60045481565b600060608060008060008060008060003060026003600554600654600754600854600c60009054906101000a900460ff16600c60019054906101000a900460ff16600d54888054600181600116156101000203166002900480601f01602080910402602001604051908101604052809291908181526020018280546001816001161561010002031660029004801561088b5780601f106108605761010080835404028352916020019161088b565b820191906000526020600020905b81548152906001019060200180831161086e57829003601f168201915b50505050509850878054600181600116156101000203166002900480601f0160208091040260200160405190810160405280929190818152602001828054600181600116156101000203166002900480156109275780601f106108fc57610100808354040283529160200191610927565b820191906000526020600020905b81548152906001019060200180831161090a57829003601f168201915b50505050509750995099509950995099509950995099509950995090919293949596979899565b6000809054906101000a900473ffffffffffffffffffffffffffffffffffffffff1673ffffffffffffffffffffffffffffffffffffffff163373ffffffffffffffffffffffffffffffffffffffff1614156109cb576000600c60016101000a81548160ff0219169083151502179055506109c6610bb3565b610b8b565b6000600960003373ffffffffffffffffffffffffffffffffffffffff1673ffffffffffffffffffffffffffffffffffffffff16815260200190815260200160002054148015610a5957506000600a60003373ffffffffffffffffffffffffffffffffffffffff1673ffffffffffffffffffffffffffffffffffffffff16815260200190815260200160002054145b15610ac557600b3390806001815401808255809150509060018203906000526020600020016000909192909190916101000a81548173ffffffffffffffffffffffffffffffffffffffff021916908373ffffffffffffffffffffffffffffffffffffffff160217905550505b600654341015610ad457600080fd5b6003600a60003373ffffffffffffffffffffffffffffffffffffffff1673ffffffffffffffffffffffffffffffffffffffff168152602001908152602001600020541115610b2157600080fd5b600a60003373ffffffffffffffffffffffffffffffffffffffff1673ffffffffffffffffffffffffffffffffffffffff16815260200190815260200160002060008154809291906001019190505550600860008154809291906001019190505550610b8a61133a565b5b565b600160009054906101000a900473ffffffffffffffffffffffffffffffffffffffff1681565b6000809054906101000a900473ffffffffffffffffffffffffffffffffffffffff1673ffffffffffffffffffffffffffffffffffffffff163373ffffffffffffffffffffffffffffffffffffffff161415610faf576001600c60006101000a81548160ff02191690831515021790555047600d8190555060011515600c60019054906101000a900460ff1615151415610dfc5760008090505b600b80549050811015610df657600060096000600b8481548110610c6c57fe5b9060005260206000200160009054906101000a900473ffffffffffffffffffffffffffffffffffffffff1673ffffffffffffffffffffffffffffffffffffffff1673ffffffffffffffffffffffffffffffffffffffff168152602001908152602001600020541115610de957600b8181548110610ce557fe5b9060005260206000200160009054906101000a900473ffffffffffffffffffffffffffffffffffffffff1673ffffffffffffffffffffffffffffffffffffffff166108fc6064605f600754600d5460096000600b8981548110610d4457fe5b9060005260206000200160009054906101000a900473ffffffffffffffffffffffffffffffffffffffff1673ffffffffffffffffffffffffffffffffffffffff1673ffffffffffffffffffffffffffffffffffffffff168152602001908152602001600020540281610db257fe5b040281610dbb57fe5b049081150290604051600060405180830381858888f19350505050158015610de7573d6000803e3d6000fd5b505b8080600101915050610c4c565b50610fae565b60008090505b600b80549050811015610fac576000600a6000600b8481548110610e2257fe5b9060005260206000200160009054906101000a900473ffffffffffffffffffffffffffffffffffffffff1673ffffffffffffffffffffffffffffffffffffffff1673ffffffffffffffffffffffffffffffffffffffff168152602001908152602001600020541115610f9f57600b8181548110610e9b57fe5b9060005260206000200160009054906101000a900473ffffffffffffffffffffffffffffffffffffffff1673ffffffffffffffffffffffffffffffffffffffff166108fc6064605f600854600d54600a6000600b8981548110610efa57fe5b9060005260206000200160009054906101000a900473ffffffffffffffffffffffffffffffffffffffff1673ffffffffffffffffffffffffffffffffffffffff1673ffffffffffffffffffffffffffffffffffffffff168152602001908152602001600020540281610f6857fe5b040281610f7157fe5b049081150290604051600060405180830381858888f19350505050158015610f9d573d6000803e3d6000fd5b505b8080600101915050610e02565b505b5b565b600c60019054906101000a900460ff1681565b60085481565b60038054600181600116156101000203166002900480601f0160208091040260200160405190810160405280929190818152602001828054600181600116156101000203166002900480156110605780601f1061103557610100808354040283529160200191611060565b820191906000526020600020905b81548152906001019060200180831161104357829003601f168201915b505050505081565b60065481565b600b818154811061107b57fe5b906000526020600020016000915054906101000a900473ffffffffffffffffffffffffffffffffffffffff1681565b600c60009054906101000a900460ff16156110c457600080fd5b6000809054906101000a900473ffffffffffffffffffffffffffffffffffffffff1673ffffffffffffffffffffffffffffffffffffffff163373ffffffffffffffffffffffffffffffffffffffff161415611141576001600c60016101000a81548160ff02191690831515021790555061113c610bb3565b611301565b6000600960003373ffffffffffffffffffffffffffffffffffffffff1673ffffffffffffffffffffffffffffffffffffffff168152602001908152602001600020541480156111cf57506000600a60003373ffffffffffffffffffffffffffffffffffffffff1673ffffffffffffffffffffffffffffffffffffffff16815260200190815260200160002054145b1561123b57600b3390806001815401808255809150509060018203906000526020600020016000909192909190916101000a81548173ffffffffffffffffffffffffffffffffffffffff021916908373ffffffffffffffffffffffffffffffffffffffff160217905550505b60055434101561124a57600080fd5b6003600960003373ffffffffffffffffffffffffffffffffffffffff1673ffffffffffffffffffffffffffffffffffffffff16815260200190815260200160002054111561129757600080fd5b600960003373ffffffffffffffffffffffffffffffffffffffff1673ffffffffffffffffffffffffffffffffffffffff1681526020019081526020016000206000815480929190600101919050555060076000815480929190600101919050555061130061133a565b5b565b60096020528060005260406000206000915090505481565b600c60009054906101000a900460ff1681565b600d5481565b60055481565b60146008546007540101600a60075401600454028161135557fe5b046005819055506005546004540360068190555047600d81905550565b60075481565b600a602052806000526040600020600091509050548156fea265627a7a723158203cea5c00b69f110e9ff41403aca8845f5815a87c7ca00aecb53078b76137c81564736f6c63430005100032",
  "source": "pragma solidity ^0.5.0;\r\n\r\ncontract Spectrum {\r\n    address[] public deployedPosts;\r\n\r\n    function createPost(string memory content, string memory name)\r\n        public\r\n        returns (address[] memory)\r\n    {\r\n        Post newPost = new Post(msg.sender, content, name);\r\n        deployedPosts.push(address(newPost));\r\n        return deployedPosts;\r\n    }\r\n\r\n    function getDeployedPosts() public view returns (address[] memory) {\r\n        return deployedPosts;\r\n    }\r\n}\r\n\r\ncontract Post {\r\n    address tempAddress;\r\n\r\n    address public manager;\r\n    string public name;\r\n    string public content;\r\n\r\n    uint256 public total = 20000000000000000;\r\n    uint256 public yayprice;\r\n    uint256 public nayprice;\r\n    uint256 public yaycount = 0;\r\n    uint256 public naycount = 0;\r\n    mapping(address => uint256) public yays;\r\n    mapping(address => uint256) public nays;\r\n    address payable[] public voted;\r\n    bool public completed = false;\r\n    bool public verdict;\r\n    uint256 public balanceRef = 0;\r\n    uint256 public timeStamp;\r\n\r\n    modifier active() {\r\n        require(!completed);\r\n        _;\r\n    }\r\n\r\n    function complete() public payable {\r\n        if (msg.sender == tempAddress) {\r\n            completed = true;\r\n            balanceRef = address(this).balance;\r\n            if (verdict == true) {\r\n                for (uint256 i = 0; i < voted.length; i++) {\r\n                    if (yays[voted[i]] > 0) {\r\n                        voted[i].transfer(\r\n                            (((yays[voted[i]] * balanceRef) / (yaycount)) *\r\n                                95) / 100\r\n                        );\r\n                    }\r\n                }\r\n            } else {\r\n                for (uint256 i = 0; i < voted.length; i++) {\r\n                    if (nays[voted[i]] > 0) {\r\n                        voted[i].transfer(\r\n                            (((nays[voted[i]] * balanceRef) / (naycount)) *\r\n                                95) / 100\r\n                        );\r\n                    }\r\n                }\r\n            }\r\n        }\r\n    }\r\n\r\n    function updateCost() public {\r\n        yayprice = ((total * (yaycount + 10)) / (yaycount + naycount + 20));\r\n        nayprice = total - yayprice;\r\n        balanceRef = address(this).balance;\r\n    }\r\n\r\n    function voteYay() public payable active {\r\n        if (msg.sender == tempAddress) {\r\n            verdict = true;\r\n            complete();\r\n        } else {\r\n            if (yays[msg.sender] == 0 && nays[msg.sender] == 0) {\r\n                voted.push(msg.sender);\r\n            }\r\n            require(msg.value >= yayprice);\r\n            require(yays[msg.sender] <= 3);\r\n\r\n            yays[msg.sender]++;\r\n            yaycount++;\r\n            updateCost();\r\n        }\r\n    }\r\n\r\n    function voteNay() public payable {\r\n        if (msg.sender == tempAddress) {\r\n            verdict = false;\r\n            complete();\r\n        } else {\r\n            if (yays[msg.sender] == 0 && nays[msg.sender] == 0) {\r\n                voted.push(msg.sender);\r\n            }\r\n            require(msg.value >= nayprice);\r\n            require(nays[msg.sender] <= 3);\r\n\r\n            nays[msg.sender]++;\r\n            naycount++;\r\n            updateCost();\r\n        }\r\n    }\r\n\r\n    function getSummary()\r\n        public\r\n        view\r\n        returns (\r\n            address,\r\n            string memory,\r\n            string memory,\r\n            uint256,\r\n            uint256,\r\n            uint256,\r\n            uint256,\r\n            bool,\r\n            bool,\r\n            uint256\r\n        )\r\n    {\r\n        return (\r\n            address(this),\r\n            name,\r\n            content,\r\n            yayprice,\r\n            nayprice,\r\n            yaycount,\r\n            naycount,\r\n            completed,\r\n            verdict,\r\n            balanceRef\r\n        );\r\n    }\r\n\r\n    constructor(\r\n        address manager_init,\r\n        string memory content_init,\r\n        string memory name_init\r\n    ) public {\r\n        name = name_init;\r\n        manager = manager_init;\r\n        tempAddress = manager;\r\n        content = content_init;\r\n        updateCost();\r\n    }\r\n}\r\n",
  "sourcePath": "D:/blockchain/crowdly/ethereum/contracts/Spectrum.sol",
  "compiler": {
    "name": "solc",
    "version": "0.5.16+commit.9c3226ce.Emscripten.clang"
  },
  "schemaVersion": "3.3.4",
  "updatedAt": "2021-04-02T22:59:43.207Z",
  "networkType": "ethereum",
  "devdoc": {
    "methods": {}
  },
  "userdoc": {
    "methods": {}
  }
}